{
  "_format": "hh-sol-artifact-1",
  "contractName": "WavePortal",
  "sourceName": "contracts/WavePortal.sol",
  "abi": [
    {
      "inputs": [],
      "stateMutability": "payable",
      "type": "constructor"
    },
    {
      "anonymous": false,
      "inputs": [
        {
          "indexed": true,
          "internalType": "address",
          "name": "from",
          "type": "address"
        },
        {
          "indexed": false,
          "internalType": "uint256",
          "name": "timestamp",
          "type": "uint256"
        },
        {
          "indexed": false,
          "internalType": "string",
          "name": "message",
          "type": "string"
        }
      ],
      "name": "NewWave",
      "type": "event"
    },
    {
      "inputs": [],
      "name": "getAllWaves",
      "outputs": [
        {
          "components": [
            {
              "internalType": "address",
              "name": "waver",
              "type": "address"
            },
            {
              "internalType": "string",
              "name": "message",
              "type": "string"
            },
            {
              "internalType": "uint256",
              "name": "timestamp",
              "type": "uint256"
            }
          ],
          "internalType": "struct WavePortal.Wave[]",
          "name": "",
          "type": "tuple[]"
        }
      ],
      "stateMutability": "view",
      "type": "function"
    },
    {
      "inputs": [],
      "name": "getTotalWaves",
      "outputs": [
        {
          "internalType": "uint256",
          "name": "",
          "type": "uint256"
        }
      ],
      "stateMutability": "view",
      "type": "function"
    },
    {
      "inputs": [
        {
          "internalType": "address",
          "name": "",
          "type": "address"
        }
      ],
      "name": "lastWavedAt",
      "outputs": [
        {
          "internalType": "uint256",
          "name": "",
          "type": "uint256"
        }
      ],
      "stateMutability": "view",
      "type": "function"
    },
    {
      "inputs": [
        {
          "internalType": "string",
          "name": "_message",
          "type": "string"
        }
      ],
      "name": "wave",
      "outputs": [],
      "stateMutability": "nonpayable",
      "type": "function"
    }
  ],
  "bytecode": "0x60806040526200004f6040518060400160405280600881526020017f476d206672656e730000000000000000000000000000000000000000000000008152506200007760201b620005c11760201c565b606444426200005f91906200017c565b6200006b9190620001e6565b600181905550620002dc565b62000117816040516024016200008e9190620002b8565b6040516020818303038152906040527f41304fac000000000000000000000000000000000000000000000000000000007bffffffffffffffffffffffffffffffffffffffffffffffffffffffff19166020820180517bffffffffffffffffffffffffffffffffffffffffffffffffffffffff83818316178352505050506200011a60201b60201c565b50565b60008151905060006a636f6e736f6c652e6c6f679050602083016000808483855afa5050505050565b6000819050919050565b7f4e487b7100000000000000000000000000000000000000000000000000000000600052601160045260246000fd5b6000620001898262000143565b9150620001968362000143565b9250828201905080821115620001b157620001b06200014d565b5b92915050565b7f4e487b7100000000000000000000000000000000000000000000000000000000600052601260045260246000fd5b6000620001f38262000143565b9150620002008362000143565b925082620002135762000212620001b7565b5b828206905092915050565b600081519050919050565b600082825260208201905092915050565b60005b838110156200025a5780820151818401526020810190506200023d565b60008484015250505050565b6000601f19601f8301169050919050565b600062000284826200021e565b62000290818562000229565b9350620002a28185602086016200023a565b620002ad8162000266565b840191505092915050565b60006020820190508181036000830152620002d4818462000277565b905092915050565b6111f280620002ec6000396000f3fe608060405234801561001057600080fd5b506004361061004c5760003560e01c8063449d46c0146100515780639a2cdc081461006d578063a42a46631461008b578063bd43a908146100bb575b600080fd5b61006b6004803603810190610066919061087c565b6100d9565b005b61007561044f565b60405161008291906108de565b60405180910390f35b6100a560048036038101906100a09190610957565b610458565b6040516100b291906108de565b60405180910390f35b6100c3610470565b6040516100d09190610b33565b60405180910390f35b42610384600360003373ffffffffffffffffffffffffffffffffffffffff1673ffffffffffffffffffffffffffffffffffffffff168152602001908152602001600020546101279190610b84565b10610167576040517f08c379a000000000000000000000000000000000000000000000000000000000815260040161015e90610c15565b60405180910390fd5b42600360003373ffffffffffffffffffffffffffffffffffffffff1673ffffffffffffffffffffffffffffffffffffffff1681526020019081526020016000208190555060016000808282546101bd9190610b84565b925050819055506102046040518060400160405280601681526020017f257320776176656420772f206d65737361676520257300000000000000000000815250338361065a565b600260405180606001604052803373ffffffffffffffffffffffffffffffffffffffff16815260200183815260200142815250908060018154018082558091505060019003906000526020600020906003020160009091909190915060008201518160000160006101000a81548173ffffffffffffffffffffffffffffffffffffffff021916908373ffffffffffffffffffffffffffffffffffffffff16021790555060208201518160010190816102bc9190610e41565b50604082015181600201555050606460015442446102da9190610b84565b6102e49190610b84565b6102ee9190610f42565b600181905550603260015410156103fc576000655af3107a400090504781111561034d576040517f08c379a000000000000000000000000000000000000000000000000000000000815260040161034490610fe5565b60405180910390fd5b60003373ffffffffffffffffffffffffffffffffffffffff168260405161037390611036565b60006040518083038185875af1925050503d80600081146103b0576040519150601f19603f3d011682016040523d82523d6000602084013e6103b5565b606091505b50509050806103f9576040517f08c379a00000000000000000000000000000000000000000000000000000000081526004016103f0906110bd565b60405180910390fd5b50505b3373ffffffffffffffffffffffffffffffffffffffff167f5f7e16dc676677766a70e9c5628aa6c54ddb8b6e5188e2ae1e1f17f1ffbea7164283604051610444929190611116565b60405180910390a250565b60008054905090565b60036020528060005260406000206000915090505481565b60606002805480602002602001604051908101604052809291908181526020016000905b828210156105b857838290600052602060002090600302016040518060600160405290816000820160009054906101000a900473ffffffffffffffffffffffffffffffffffffffff1673ffffffffffffffffffffffffffffffffffffffff1673ffffffffffffffffffffffffffffffffffffffff16815260200160018201805461051d90610c64565b80601f016020809104026020016040519081016040528092919081815260200182805461054990610c64565b80156105965780601f1061056b57610100808354040283529160200191610596565b820191906000526020600020905b81548152906001019060200180831161057957829003601f168201915b5050505050815260200160028201548152505081526020019060010190610494565b50505050905090565b610657816040516024016105d59190611146565b6040516020818303038152906040527f41304fac000000000000000000000000000000000000000000000000000000007bffffffffffffffffffffffffffffffffffffffffffffffffffffffff19166020820180517bffffffffffffffffffffffffffffffffffffffffffffffffffffffff83818316178352505050506106f9565b50565b6106f483838360405160240161067293929190611177565b6040516020818303038152906040527fe0e9ad4f000000000000000000000000000000000000000000000000000000007bffffffffffffffffffffffffffffffffffffffffffffffffffffffff19166020820180517bffffffffffffffffffffffffffffffffffffffffffffffffffffffff83818316178352505050506106f9565b505050565b60008151905060006a636f6e736f6c652e6c6f679050602083016000808483855afa5050505050565b6000604051905090565b600080fd5b600080fd5b600080fd5b600080fd5b6000601f19601f8301169050919050565b7f4e487b7100000000000000000000000000000000000000000000000000000000600052604160045260246000fd5b61078982610740565b810181811067ffffffffffffffff821117156107a8576107a7610751565b5b80604052505050565b60006107bb610722565b90506107c78282610780565b919050565b600067ffffffffffffffff8211156107e7576107e6610751565b5b6107f082610740565b9050602081019050919050565b82818337600083830152505050565b600061081f61081a846107cc565b6107b1565b90508281526020810184848401111561083b5761083a61073b565b5b6108468482856107fd565b509392505050565b600082601f83011261086357610862610736565b5b813561087384826020860161080c565b91505092915050565b6000602082840312156108925761089161072c565b5b600082013567ffffffffffffffff8111156108b0576108af610731565b5b6108bc8482850161084e565b91505092915050565b6000819050919050565b6108d8816108c5565b82525050565b60006020820190506108f360008301846108cf565b92915050565b600073ffffffffffffffffffffffffffffffffffffffff82169050919050565b6000610924826108f9565b9050919050565b61093481610919565b811461093f57600080fd5b50565b6000813590506109518161092b565b92915050565b60006020828403121561096d5761096c61072c565b5b600061097b84828501610942565b91505092915050565b600081519050919050565b600082825260208201905092915050565b6000819050602082019050919050565b6109b981610919565b82525050565b600081519050919050565b600082825260208201905092915050565b60005b838110156109f95780820151818401526020810190506109de565b60008484015250505050565b6000610a10826109bf565b610a1a81856109ca565b9350610a2a8185602086016109db565b610a3381610740565b840191505092915050565b610a47816108c5565b82525050565b6000606083016000830151610a6560008601826109b0565b5060208301518482036020860152610a7d8282610a05565b9150506040830151610a926040860182610a3e565b508091505092915050565b6000610aa98383610a4d565b905092915050565b6000602082019050919050565b6000610ac982610984565b610ad3818561098f565b935083602082028501610ae5856109a0565b8060005b85811015610b215784840389528151610b028582610a9d565b9450610b0d83610ab1565b925060208a01995050600181019050610ae9565b50829750879550505050505092915050565b60006020820190508181036000830152610b4d8184610abe565b905092915050565b7f4e487b7100000000000000000000000000000000000000000000000000000000600052601160045260246000fd5b6000610b8f826108c5565b9150610b9a836108c5565b9250828201905080821115610bb257610bb1610b55565b5b92915050565b600082825260208201905092915050565b7f576169742031356d000000000000000000000000000000000000000000000000600082015250565b6000610bff600883610bb8565b9150610c0a82610bc9565b602082019050919050565b60006020820190508181036000830152610c2e81610bf2565b9050919050565b7f4e487b7100000000000000000000000000000000000000000000000000000000600052602260045260246000fd5b60006002820490506001821680610c7c57607f821691505b602082108103610c8f57610c8e610c35565b5b50919050565b60008190508160005260206000209050919050565b60006020601f8301049050919050565b600082821b905092915050565b600060088302610cf77fffffffffffffffffffffffffffffffffffffffffffffffffffffffffffffffff82610cba565b610d018683610cba565b95508019841693508086168417925050509392505050565b6000819050919050565b6000610d3e610d39610d34846108c5565b610d19565b6108c5565b9050919050565b6000819050919050565b610d5883610d23565b610d6c610d6482610d45565b848454610cc7565b825550505050565b600090565b610d81610d74565b610d8c818484610d4f565b505050565b5b81811015610db057610da5600082610d79565b600181019050610d92565b5050565b601f821115610df557610dc681610c95565b610dcf84610caa565b81016020851015610dde578190505b610df2610dea85610caa565b830182610d91565b50505b505050565b600082821c905092915050565b6000610e1860001984600802610dfa565b1980831691505092915050565b6000610e318383610e07565b9150826002028217905092915050565b610e4a826109bf565b67ffffffffffffffff811115610e6357610e62610751565b5b610e6d8254610c64565b610e78828285610db4565b600060209050601f831160018114610eab5760008415610e99578287015190505b610ea38582610e25565b865550610f0b565b601f198416610eb986610c95565b60005b82811015610ee157848901518255600182019150602085019450602081019050610ebc565b86831015610efe5784890151610efa601f891682610e07565b8355505b6001600288020188555050505b505050505050565b7f4e487b7100000000000000000000000000000000000000000000000000000000600052601260045260246000fd5b6000610f4d826108c5565b9150610f58836108c5565b925082610f6857610f67610f13565b5b828206905092915050565b7f547279696e6720746f207769746864726177206d6f7265206d6f6e657920746860008201527f616e2074686520636f6e7472616374206861732e000000000000000000000000602082015250565b6000610fcf603483610bb8565b9150610fda82610f73565b604082019050919050565b60006020820190508181036000830152610ffe81610fc2565b9050919050565b600081905092915050565b50565b6000611020600083611005565b915061102b82611010565b600082019050919050565b600061104182611013565b9150819050919050565b7f4661696c656420746f207769746864726177206d6f6e65792066726f6d20636f60008201527f6e74726163742e00000000000000000000000000000000000000000000000000602082015250565b60006110a7602783610bb8565b91506110b28261104b565b604082019050919050565b600060208201905081810360008301526110d68161109a565b9050919050565b60006110e8826109bf565b6110f28185610bb8565b93506111028185602086016109db565b61110b81610740565b840191505092915050565b600060408201905061112b60008301856108cf565b818103602083015261113d81846110dd565b90509392505050565b6000602082019050818103600083015261116081846110dd565b905092915050565b61117181610919565b82525050565b6000606082019050818103600083015261119181866110dd565b90506111a06020830185611168565b81810360408301526111b281846110dd565b905094935050505056fea26469706673582212203a6a5bbe9cb0f828dc1efd41ad9c60aaf8ad677465d0f0b88b298b6b281f60cd64736f6c63430008110033",
  "linkReferences": {},
  "deployedLinkReferences": {}
}