{
  "_format": "hh-sol-artifact-1",
  "contractName": "WavePortal",
  "sourceName": "contracts/WavePortal.sol",
  "abi": [
    {
      "inputs": [],
      "stateMutability": "nonpayable",
      "type": "constructor"
    },
    {
      "inputs": [],
      "name": "getTotalWaves",
      "outputs": [
        {
          "internalType": "uint256",
          "name": "",
          "type": "uint256"
        }
      ],
      "stateMutability": "view",
      "type": "function"
    },
    {
      "inputs": [],
      "name": "wave",
      "outputs": [],
      "stateMutability": "nonpayable",
      "type": "function"
    }
  ],
  "bytecode": "0x608060405234801561001057600080fd5b506100596040518060400160405280600881526020017f476d206672656e7300000000000000000000000000000000000000000000000081525061005e60201b6104021760201c565b6101d8565b6100fa8160405160240161007291906101b6565b6040516020818303038152906040527f41304fac000000000000000000000000000000000000000000000000000000007bffffffffffffffffffffffffffffffffffffffffffffffffffffffff19166020820180517bffffffffffffffffffffffffffffffffffffffffffffffffffffffff83818316178352505050506100fd60201b60201c565b50565b60008151905060006a636f6e736f6c652e6c6f679050602083016000808483855afa5050505050565b600081519050919050565b600082825260208201905092915050565b60005b83811015610160578082015181840152602081019050610145565b60008484015250505050565b6000601f19601f8301169050919050565b600061018882610126565b6101928185610131565b93506101a2818560208601610142565b6101ab8161016c565b840191505092915050565b600060208201905081810360008301526101d0818461017d565b905092915050565b610a78806101e76000396000f3fe608060405234801561001057600080fd5b50600436106100365760003560e01c80636fe15b441461003b5780639a2cdc0814610045575b600080fd5b610043610063565b005b61004d6101b6565b60405161005a9190610753565b60405180910390f35b60018060003373ffffffffffffffffffffffffffffffffffffffff1673ffffffffffffffffffffffffffffffffffffffff16815260200190815260200160002060008282546100b2919061079d565b925050819055506002339080600181540180825580915050600190039060005260206000200160009091909190916101000a81548173ffffffffffffffffffffffffffffffffffffffff021916908373ffffffffffffffffffffffffffffffffffffffff160217905550600160008082825461012e919061079d565b925050819055506101b46040518060400160405280601681526020017f2573206861732077617665642025642074696d6573210000000000000000000081525033600160003373ffffffffffffffffffffffffffffffffffffffff1673ffffffffffffffffffffffffffffffffffffffff1681526020019081526020016000205461049b565b565b600080600080600280549050925060005b8381101561026e5760016000600283815481106101e7576101e66107d1565b5b9060005260206000200160009054906101000a900473ffffffffffffffffffffffffffffffffffffffff1673ffffffffffffffffffffffffffffffffffffffff1673ffffffffffffffffffffffffffffffffffffffff1681526020019081526020016000205491508282111561025b578192505b808061026690610800565b9150506101c7565b506102946040518060600160405280602b8152602001610a18602b91396000548561053a565b6102d36040518060400160405280601d81526020017f486967686573742077617665727320776974682025642077617665733a000000815250836105d9565b60005b838110156103f65760016000600283815481106102f6576102f56107d1565b5b9060005260206000200160009054906101000a900473ffffffffffffffffffffffffffffffffffffffff1673ffffffffffffffffffffffffffffffffffffffff1673ffffffffffffffffffffffffffffffffffffffff1681526020019081526020016000205491508282036103e3576103e26040518060400160405280600281526020017f2573000000000000000000000000000000000000000000000000000000000000815250600283815481106103b2576103b16107d1565b5b9060005260206000200160009054906101000a900473ffffffffffffffffffffffffffffffffffffffff16610675565b5b80806103ee90610800565b9150506102d6565b50600054935050505090565b6104988160405160240161041691906108d8565b6040516020818303038152906040527f41304fac000000000000000000000000000000000000000000000000000000007bffffffffffffffffffffffffffffffffffffffffffffffffffffffff19166020820180517bffffffffffffffffffffffffffffffffffffffffffffffffffffffff8381831617835250505050610711565b50565b6105358383836040516024016104b39392919061093b565b6040516020818303038152906040527f0d26b925000000000000000000000000000000000000000000000000000000007bffffffffffffffffffffffffffffffffffffffffffffffffffffffff19166020820180517bffffffffffffffffffffffffffffffffffffffffffffffffffffffff8381831617835250505050610711565b505050565b6105d483838360405160240161055293929190610979565b6040516020818303038152906040527fca47c4eb000000000000000000000000000000000000000000000000000000007bffffffffffffffffffffffffffffffffffffffffffffffffffffffff19166020820180517bffffffffffffffffffffffffffffffffffffffffffffffffffffffff8381831617835250505050610711565b505050565b61067182826040516024016105ef9291906109b7565b6040516020818303038152906040527fb60e72cc000000000000000000000000000000000000000000000000000000007bffffffffffffffffffffffffffffffffffffffffffffffffffffffff19166020820180517bffffffffffffffffffffffffffffffffffffffffffffffffffffffff8381831617835250505050610711565b5050565b61070d828260405160240161068b9291906109e7565b6040516020818303038152906040527f319af333000000000000000000000000000000000000000000000000000000007bffffffffffffffffffffffffffffffffffffffffffffffffffffffff19166020820180517bffffffffffffffffffffffffffffffffffffffffffffffffffffffff8381831617835250505050610711565b5050565b60008151905060006a636f6e736f6c652e6c6f679050602083016000808483855afa5050505050565b6000819050919050565b61074d8161073a565b82525050565b60006020820190506107686000830184610744565b92915050565b7f4e487b7100000000000000000000000000000000000000000000000000000000600052601160045260246000fd5b60006107a88261073a565b91506107b38361073a565b92508282019050808211156107cb576107ca61076e565b5b92915050565b7f4e487b7100000000000000000000000000000000000000000000000000000000600052603260045260246000fd5b600061080b8261073a565b91507fffffffffffffffffffffffffffffffffffffffffffffffffffffffffffffffff820361083d5761083c61076e565b5b600182019050919050565b600081519050919050565b600082825260208201905092915050565b60005b83811015610882578082015181840152602081019050610867565b60008484015250505050565b6000601f19601f8301169050919050565b60006108aa82610848565b6108b48185610853565b93506108c4818560208601610864565b6108cd8161088e565b840191505092915050565b600060208201905081810360008301526108f2818461089f565b905092915050565b600073ffffffffffffffffffffffffffffffffffffffff82169050919050565b6000610925826108fa565b9050919050565b6109358161091a565b82525050565b60006060820190508181036000830152610955818661089f565b9050610964602083018561092c565b6109716040830184610744565b949350505050565b60006060820190508181036000830152610993818661089f565b90506109a26020830185610744565b6109af6040830184610744565b949350505050565b600060408201905081810360008301526109d1818561089f565b90506109e06020830184610744565b9392505050565b60006040820190508181036000830152610a01818561089f565b9050610a10602083018461092c565b939250505056fe5765206861766520256420746f74616c20776176657320616e6420256420746f74616c2077617665727321a26469706673582212202b3d49f7a0e7cef5b1b06bc18244044fedeaa1837453105504cbc175f5a19e5564736f6c63430008110033",
  "linkReferences": {},
  "deployedLinkReferences": {}
}